{
  "_format": "hh-sol-artifact-1",
  "contractName": "HashRegistry",
  "sourceName": "contracts/HashRegistry.sol",
  "abi": [
    {
      "inputs": [
        {
          "internalType": "bytes32",
          "name": "_hash",
          "type": "bytes32"
        }
      ],
      "name": "getHashTimestamp",
      "outputs": [
        {
          "internalType": "uint256",
          "name": "",
          "type": "uint256"
        }
      ],
      "stateMutability": "view",
      "type": "function"
    },
    {
      "inputs": [
        {
          "internalType": "bytes32",
          "name": "",
          "type": "bytes32"
        }
      ],
      "name": "idHashes",
      "outputs": [
        {
          "internalType": "uint256",
          "name": "",
          "type": "uint256"
        }
      ],
      "stateMutability": "view",
      "type": "function"
    },
    {
      "inputs": [
        {
          "internalType": "bytes32",
          "name": "_hash",
          "type": "bytes32"
        }
      ],
      "name": "storeHash",
      "outputs": [],
      "stateMutability": "nonpayable",
      "type": "function"
    },
    {
      "inputs": [
        {
          "internalType": "bytes32",
          "name": "_hash",
          "type": "bytes32"
        }
      ],
      "name": "verifyHash",
      "outputs": [
        {
          "internalType": "bool",
          "name": "",
          "type": "bool"
        }
      ],
      "stateMutability": "view",
      "type": "function"
    }
  ],
  "bytecode": "0x608060405234801561001057600080fd5b50610344806100206000396000f3fe608060405234801561001057600080fd5b506004361061004c5760003560e01c80631908d543146100515780637fe888851461008157806382eed7cd1461009d578063ef020f4a146100cd575b600080fd5b61006b600480360381019061006691906101fa565b6100fd565b6040516100789190610240565b60405180910390f35b61009b600480360381019061009691906101fa565b610115565b005b6100b760048036038101906100b291906101fa565b610184565b6040516100c49190610240565b60405180910390f35b6100e760048036038101906100e291906101fa565b6101a0565b6040516100f49190610276565b60405180910390f35b60006020528060005260406000206000915090505481565b6000806000838152602001908152602001600020541461016a576040517f08c379a0000000000000000000000000000000000000000000000000000000008152600401610161906102ee565b60405180910390fd5b426000808381526020019081526020016000208190555050565b6000806000838152602001908152602001600020549050919050565b6000806000808481526020019081526020016000205414159050919050565b600080fd5b6000819050919050565b6101d7816101c4565b81146101e257600080fd5b50565b6000813590506101f4816101ce565b92915050565b6000602082840312156102105761020f6101bf565b5b600061021e848285016101e5565b91505092915050565b6000819050919050565b61023a81610227565b82525050565b60006020820190506102556000830184610231565b92915050565b60008115159050919050565b6102708161025b565b82525050565b600060208201905061028b6000830184610267565b92915050565b600082825260208201905092915050565b7f4861736820616c72656164792073746f72656400000000000000000000000000600082015250565b60006102d8601383610291565b91506102e3826102a2565b602082019050919050565b60006020820190508181036000830152610307816102cb565b905091905056fea2646970667358221220a59b313855775ec187fc3ac8034f2312e8b7aafdd1d8128fedb93c6cdf2dacb864736f6c63430008140033",
  "linkReferences": {},
  "deployedLinkReferences": {}
}