{
  "_format": "hh-sol-artifact-1",
  "contractName": "HashRegistry",
  "sourceName": "contracts/HashRegistry.sol",
  "abi": [
    {
      "inputs": [
        {
          "internalType": "bytes32",
          "name": "",
          "type": "bytes32"
        }
      ],
      "name": "hashTimestamp",
      "outputs": [
        {
          "internalType": "uint256",
          "name": "",
          "type": "uint256"
        }
      ],
      "stateMutability": "view",
      "type": "function"
    },
    {
      "inputs": [
        {
          "internalType": "bytes32",
          "name": "",
          "type": "bytes32"
        }
      ],
      "name": "latestHash",
      "outputs": [
        {
          "internalType": "bytes32",
          "name": "",
          "type": "bytes32"
        }
      ],
      "stateMutability": "view",
      "type": "function"
    },
    {
      "inputs": [
        {
          "internalType": "bytes32",
          "name": "",
          "type": "bytes32"
        }
      ],
      "name": "revoked",
      "outputs": [
        {
          "internalType": "bool",
          "name": "",
          "type": "bool"
        }
      ],
      "stateMutability": "view",
      "type": "function"
    },
    {
      "inputs": [
        {
          "internalType": "bytes32",
          "name": "identityId",
          "type": "bytes32"
        },
        {
          "internalType": "bytes32",
          "name": "hash",
          "type": "bytes32"
        }
      ],
      "name": "storeInitialHash",
      "outputs": [],
      "stateMutability": "nonpayable",
      "type": "function"
    },
    {
      "inputs": [
        {
          "internalType": "bytes32",
          "name": "identityId",
          "type": "bytes32"
        },
        {
          "internalType": "bytes32",
          "name": "newHash",
          "type": "bytes32"
        }
      ],
      "name": "updateHash",
      "outputs": [],
      "stateMutability": "nonpayable",
      "type": "function"
    },
    {
      "inputs": [
        {
          "internalType": "bytes32",
          "name": "identityId",
          "type": "bytes32"
        },
        {
          "internalType": "bytes32",
          "name": "hash",
          "type": "bytes32"
        }
      ],
      "name": "verify",
      "outputs": [
        {
          "internalType": "bool",
          "name": "",
          "type": "bool"
        }
      ],
      "stateMutability": "view",
      "type": "function"
    }
  ],
  "bytecode": "0x608060405234801561001057600080fd5b50610743806100206000396000f3fe608060405234801561001057600080fd5b50600436106100625760003560e01c80633260b1e714610067578063328a93e8146100975780634e8fee00146100c757806361a7e741146100f7578063822e434314610127578063dc327db514610143575b600080fd5b610081600480360381019061007c919061044b565b61015f565b60405161008e9190610491565b60405180910390f35b6100b160048036038101906100ac919061044b565b610177565b6040516100be91906104c7565b60405180910390f35b6100e160048036038101906100dc91906104e2565b610197565b6040516100ee91906104c7565b60405180910390f35b610111600480360381019061010c919061044b565b610206565b60405161011e9190610531565b60405180910390f35b610141600480360381019061013c91906104e2565b61021e565b005b61015d600480360381019061015891906104e2565b610330565b005b60016020528060005260406000206000915090505481565b60026020528060005260406000206000915054906101000a900460ff1681565b600081600080858152602001908152602001600020541480156101de5750600015156002600084815260200190815260200160002060009054906101000a900460ff161515145b80156101fe57506000600160008481526020019081526020016000205414155b905092915050565b60006020528060005260406000206000915090505481565b60008060008481526020019081526020016000205490506000801b810361027a576040517f08c379a0000000000000000000000000000000000000000000000000000000008152600401610271906105a9565b60405180910390fd5b60006001600084815260200190815260200160002054146102d0576040517f08c379a00000000000000000000000000000000000000000000000000000000081526004016102c790610615565b60405180910390fd5b60016002600083815260200190815260200160002060006101000a81548160ff0219169083151502179055508160008085815260200190815260200160002081905550426001600084815260200190815260200160002081905550505050565b6000801b6000808481526020019081526020016000205414610387576040517f08c379a000000000000000000000000000000000000000000000000000000000815260040161037e90610681565b60405180910390fd5b60006001600083815260200190815260200160002054146103dd576040517f08c379a00000000000000000000000000000000000000000000000000000000081526004016103d4906106ed565b60405180910390fd5b80600080848152602001908152602001600020819055504260016000838152602001908152602001600020819055505050565b600080fd5b6000819050919050565b61042881610415565b811461043357600080fd5b50565b6000813590506104458161041f565b92915050565b60006020828403121561046157610460610410565b5b600061046f84828501610436565b91505092915050565b6000819050919050565b61048b81610478565b82525050565b60006020820190506104a66000830184610482565b92915050565b60008115159050919050565b6104c1816104ac565b82525050565b60006020820190506104dc60008301846104b8565b92915050565b600080604083850312156104f9576104f8610410565b5b600061050785828601610436565b925050602061051885828601610436565b9150509250929050565b61052b81610415565b82525050565b60006020820190506105466000830184610522565b92915050565b600082825260208201905092915050565b7f4964656e74697479206e6f7420666f756e640000000000000000000000000000600082015250565b600061059360128361054c565b915061059e8261055d565b602082019050919050565b600060208201905081810360008301526105c281610586565b9050919050565b7f4e6577206861736820616c72656164792073746f726564000000000000000000600082015250565b60006105ff60178361054c565b915061060a826105c9565b602082019050919050565b6000602082019050818103600083015261062e816105f2565b9050919050565b7f4964656e7469747920616c726561647920657869737473000000000000000000600082015250565b600061066b60178361054c565b915061067682610635565b602082019050919050565b6000602082019050818103600083015261069a8161065e565b9050919050565b7f4861736820616c72656164792073746f72656400000000000000000000000000600082015250565b60006106d760138361054c565b91506106e2826106a1565b602082019050919050565b60006020820190508181036000830152610706816106ca565b905091905056fea264697066735822122075b9d83a37f7d3286eb907df4e197116220e006b3140069fe5c9739ef62d8c2c64736f6c63430008140033",
  "linkReferences": {},
  "deployedLinkReferences": {}
}